{
  "_format": "hh-sol-artifact-1",
  "contractName": "Escrow",
  "sourceName": "contracts/Escrow.sol",
  "abi": [
    {
      "inputs": [
        {
          "internalType": "contract IERC20",
          "name": "_daiToken",
          "type": "address"
        },
        {
          "internalType": "contract FluxToken",
          "name": "_fluxToken",
          "type": "address"
        }
      ],
      "stateMutability": "nonpayable",
      "type": "constructor"
    },
    {
      "anonymous": false,
      "inputs": [
        {
          "indexed": true,
          "internalType": "address",
          "name": "from",
          "type": "address"
        },
        {
          "indexed": false,
          "internalType": "uint256",
          "name": "amount",
          "type": "uint256"
        }
      ],
      "name": "Stake",
      "type": "event"
    },
    {
      "anonymous": false,
      "inputs": [
        {
          "indexed": true,
          "internalType": "address",
          "name": "from",
          "type": "address"
        },
        {
          "indexed": false,
          "internalType": "uint256",
          "name": "amount",
          "type": "uint256"
        }
      ],
      "name": "Unstake",
      "type": "event"
    },
    {
      "anonymous": false,
      "inputs": [
        {
          "indexed": true,
          "internalType": "address",
          "name": "to",
          "type": "address"
        },
        {
          "indexed": false,
          "internalType": "uint256",
          "name": "amount",
          "type": "uint256"
        }
      ],
      "name": "YieldWithdrawn",
      "type": "event"
    },
    {
      "inputs": [
        {
          "internalType": "address",
          "name": "user",
          "type": "address"
        }
      ],
      "name": "calculateStakingTimeInSeconds",
      "outputs": [
        {
          "internalType": "uint256",
          "name": "",
          "type": "uint256"
        }
      ],
      "stateMutability": "view",
      "type": "function"
    },
    {
      "inputs": [
        {
          "internalType": "address",
          "name": "user",
          "type": "address"
        }
      ],
      "name": "calculateTotalYield",
      "outputs": [
        {
          "internalType": "uint256",
          "name": "",
          "type": "uint256"
        }
      ],
      "stateMutability": "view",
      "type": "function"
    },
    {
      "inputs": [],
      "name": "daiToken",
      "outputs": [
        {
          "internalType": "contract IERC20",
          "name": "",
          "type": "address"
        }
      ],
      "stateMutability": "view",
      "type": "function"
    },
    {
      "inputs": [],
      "name": "fluxToken",
      "outputs": [
        {
          "internalType": "contract FluxToken",
          "name": "",
          "type": "address"
        }
      ],
      "stateMutability": "view",
      "type": "function"
    },
    {
      "inputs": [
        {
          "internalType": "address",
          "name": "",
          "type": "address"
        }
      ],
      "name": "fluxTokenBalance",
      "outputs": [
        {
          "internalType": "uint256",
          "name": "",
          "type": "uint256"
        }
      ],
      "stateMutability": "view",
      "type": "function"
    },
    {
      "inputs": [
        {
          "internalType": "address",
          "name": "",
          "type": "address"
        }
      ],
      "name": "isStaking",
      "outputs": [
        {
          "internalType": "bool",
          "name": "",
          "type": "bool"
        }
      ],
      "stateMutability": "view",
      "type": "function"
    },
    {
      "inputs": [],
      "name": "name",
      "outputs": [
        {
          "internalType": "string",
          "name": "",
          "type": "string"
        }
      ],
      "stateMutability": "view",
      "type": "function"
    },
    {
      "inputs": [
        {
          "internalType": "uint256",
          "name": "amount",
          "type": "uint256"
        }
      ],
      "name": "stake",
      "outputs": [],
      "stateMutability": "nonpayable",
      "type": "function"
    },
    {
      "inputs": [
        {
          "internalType": "address",
          "name": "",
          "type": "address"
        }
      ],
      "name": "stakingBalance",
      "outputs": [
        {
          "internalType": "uint256",
          "name": "",
          "type": "uint256"
        }
      ],
      "stateMutability": "view",
      "type": "function"
    },
    {
      "inputs": [
        {
          "internalType": "address",
          "name": "",
          "type": "address"
        }
      ],
      "name": "startTime",
      "outputs": [
        {
          "internalType": "uint256",
          "name": "",
          "type": "uint256"
        }
      ],
      "stateMutability": "view",
      "type": "function"
    },
    {
      "inputs": [
        {
          "internalType": "uint256",
          "name": "amount",
          "type": "uint256"
        }
      ],
      "name": "unstake",
      "outputs": [],
      "stateMutability": "nonpayable",
      "type": "function"
    },
    {
      "inputs": [],
      "name": "withdrawYield",
      "outputs": [],
      "stateMutability": "nonpayable",
      "type": "function"
    }
  ],
  "bytecode": "0x60806040526040518060400160405280600981526020017f466c7578204661726d000000000000000000000000000000000000000000000081525060049080519060200190620000519291906200010f565b503480156200005f57600080fd5b506040516200192c3803806200192c8339818101604052810190620000859190620001ed565b81600560006101000a81548173ffffffffffffffffffffffffffffffffffffffff021916908373ffffffffffffffffffffffffffffffffffffffff16021790555080600660006101000a81548173ffffffffffffffffffffffffffffffffffffffff021916908373ffffffffffffffffffffffffffffffffffffffff160217905550505062000323565b8280546200011d906200028a565b90600052602060002090601f0160209004810192826200014157600085556200018d565b82601f106200015c57805160ff19168380011785556200018d565b828001600101855582156200018d579182015b828111156200018c5782518255916020019190600101906200016f565b5b5090506200019c9190620001a0565b5090565b5b80821115620001bb576000816000905550600101620001a1565b5090565b600081519050620001d081620002ef565b92915050565b600081519050620001e78162000309565b92915050565b600080604083850312156200020157600080fd5b60006200021185828601620001d6565b92505060206200022485828601620001bf565b9150509250929050565b60006200023b826200026a565b9050919050565b60006200024f826200022e565b9050919050565b600062000263826200022e565b9050919050565b600073ffffffffffffffffffffffffffffffffffffffff82169050919050565b60006002820490506001821680620002a357607f821691505b60208210811415620002ba57620002b9620002c0565b5b50919050565b7f4e487b7100000000000000000000000000000000000000000000000000000000600052602260045260246000fd5b620002fa8162000242565b81146200030657600080fd5b50565b620003148162000256565b81146200032057600080fd5b50565b6115f980620003336000396000f3fe608060405234801561001057600080fd5b50600436106100b45760003560e01c806382b66a2a1161007157806382b66a2a146101b35780639c9dbde1146101e3578063a694fc3a14610201578063b2a8cd041461021d578063be22f5461461024d578063e507a8a41461026b576100b4565b806302a8455d146100b957806306fdde03146100e95780632e17de781461010757806345bc78ab146101235780636e1dc66e146101535780636f49712b14610183575b600080fd5b6100d360048036038101906100ce9190610ed9565b610275565b6040516100e091906111fb565b60405180910390f35b6100f1610346565b6040516100fe9190611159565b60405180910390f35b610121600480360381019061011c9190610f2b565b6103d4565b005b61013d60048036038101906101389190610ed9565b610752565b60405161014a91906111fb565b60405180910390f35b61016d60048036038101906101689190610ed9565b61076a565b60405161017a91906111fb565b60405180910390f35b61019d60048036038101906101989190610ed9565b610782565b6040516101aa9190611108565b60405180910390f35b6101cd60048036038101906101c89190610ed9565b6107a2565b6040516101da91906111fb565b60405180910390f35b6101eb6107ba565b6040516101f89190611123565b60405180910390f35b61021b60048036038101906102169190610f2b565b6107e0565b005b61023760048036038101906102329190610ed9565b610bbb565b60405161024491906111fb565b60405180910390f35b610255610c0f565b604051610262919061113e565b60405180910390f35b610273610c35565b005b6000670de0b6b3a76400006000808473ffffffffffffffffffffffffffffffffffffffff1673ffffffffffffffffffffffffffffffffffffffff1681526020019081526020016000205462015180670de0b6b3a7640000600260008773ffffffffffffffffffffffffffffffffffffffff1673ffffffffffffffffffffffffffffffffffffffff16815260200190815260200160002054426103179190611313565b61032191906112b9565b61032b9190611288565b61033591906112b9565b61033f9190611288565b9050919050565b600480546103539061140a565b80601f016020809104026020016040519081016040528092919081815260200182805461037f9061140a565b80156103cc5780601f106103a1576101008083540402835291602001916103cc565b820191906000526020600020905b8154815290600101906020018083116103af57829003601f168201915b505050505081565b600180156104205750806000803373ffffffffffffffffffffffffffffffffffffffff1673ffffffffffffffffffffffffffffffffffffffff1681526020019081526020016000205410155b600160003373ffffffffffffffffffffffffffffffffffffffff1673ffffffffffffffffffffffffffffffffffffffff16815260200190815260200160002060006101000a81548160ff02191690831515021790556104b4576040517f08c379a00000000000000000000000000000000000000000000000000000000081526004016104ab906111db565b60405180910390fd5b60006104bf33610275565b905042600260003373ffffffffffffffffffffffffffffffffffffffff1673ffffffffffffffffffffffffffffffffffffffff16815260200190815260200160002081905550816000803373ffffffffffffffffffffffffffffffffffffffff1673ffffffffffffffffffffffffffffffffffffffff16815260200190815260200160002060008282546105539190611313565b9250508190555080600360003373ffffffffffffffffffffffffffffffffffffffff1673ffffffffffffffffffffffffffffffffffffffff16815260200190815260200160002060008282546105a99190611232565b9250508190555060008060003373ffffffffffffffffffffffffffffffffffffffff1673ffffffffffffffffffffffffffffffffffffffff168152602001908152602001600020541415610650576000600160003373ffffffffffffffffffffffffffffffffffffffff1673ffffffffffffffffffffffffffffffffffffffff16815260200190815260200160002060006101000a81548160ff0219169083151502179055505b600560009054906101000a900473ffffffffffffffffffffffffffffffffffffffff1673ffffffffffffffffffffffffffffffffffffffff1663a9059cbb33846040518363ffffffff1660e01b81526004016106ad9291906110df565b602060405180830381600087803b1580156106c757600080fd5b505af11580156106db573d6000803e3d6000fd5b505050506040513d601f19601f820116820180604052508101906106ff9190610f02565b503373ffffffffffffffffffffffffffffffffffffffff167f85082129d87b2fe11527cb1b3b7a520aeb5aa6913f88a3d8757fe40d1db02fdd8360405161074691906111fb565b60405180910390a25050565b60006020528060005260406000206000915090505481565b60026020528060005260406000206000915090505481565b60016020528060005260406000206000915054906101000a900460ff1681565b60036020528060005260406000206000915090505481565b600660009054906101000a900473ffffffffffffffffffffffffffffffffffffffff1681565b60008111610823576040517f08c379a000000000000000000000000000000000000000000000000000000000815260040161081a9061119b565b60405180910390fd5b80600560009054906101000a900473ffffffffffffffffffffffffffffffffffffffff1673ffffffffffffffffffffffffffffffffffffffff166370a08231336040518263ffffffff1660e01b815260040161087f919061108d565b60206040518083038186803b15801561089757600080fd5b505afa1580156108ab573d6000803e3d6000fd5b505050506040513d601f19601f820116820180604052508101906108cf9190610f54565b1015610910576040517f08c379a0000000000000000000000000000000000000000000000000000000008152600401610907906111bb565b60405180910390fd5b60011515600160003373ffffffffffffffffffffffffffffffffffffffff1673ffffffffffffffffffffffffffffffffffffffff16815260200190815260200160002060009054906101000a900460ff16151514156109c85761097233610275565b600360003373ffffffffffffffffffffffffffffffffffffffff1673ffffffffffffffffffffffffffffffffffffffff16815260200190815260200160002060008282546109c09190611232565b925050819055505b600560009054906101000a900473ffffffffffffffffffffffffffffffffffffffff1673ffffffffffffffffffffffffffffffffffffffff166323b872dd3330846040518463ffffffff1660e01b8152600401610a27939291906110a8565b602060405180830381600087803b158015610a4157600080fd5b505af1158015610a55573d6000803e3d6000fd5b505050506040513d601f19601f82011682018060405250810190610a799190610f02565b50806000803373ffffffffffffffffffffffffffffffffffffffff1673ffffffffffffffffffffffffffffffffffffffff1681526020019081526020016000206000828254610ac89190611232565b9250508190555042600260003373ffffffffffffffffffffffffffffffffffffffff1673ffffffffffffffffffffffffffffffffffffffff1681526020019081526020016000208190555060018060003373ffffffffffffffffffffffffffffffffffffffff1673ffffffffffffffffffffffffffffffffffffffff16815260200190815260200160002060006101000a81548160ff0219169083151502179055503373ffffffffffffffffffffffffffffffffffffffff167febedb8b3c678666e7f36970bc8f57abf6d8fa2e828c0da91ea5b75bf68ed101a82604051610bb091906111fb565b60405180910390a250565b6000600260008373ffffffffffffffffffffffffffffffffffffffff1673ffffffffffffffffffffffffffffffffffffffff1681526020019081526020016000205442610c089190611313565b9050919050565b600560009054906101000a900473ffffffffffffffffffffffffffffffffffffffff1681565b6000610c4033610275565b90506000811180610c9057506000600360003373ffffffffffffffffffffffffffffffffffffffff1673ffffffffffffffffffffffffffffffffffffffff16815260200190815260200160002054115b610ccf576040517f08c379a0000000000000000000000000000000000000000000000000000000008152600401610cc69061117b565b60405180910390fd5b600360003373ffffffffffffffffffffffffffffffffffffffff1673ffffffffffffffffffffffffffffffffffffffff1681526020019081526020016000205481610d1a9190611232565b90506000600360003373ffffffffffffffffffffffffffffffffffffffff1673ffffffffffffffffffffffffffffffffffffffff1681526020019081526020016000208190555042600260003373ffffffffffffffffffffffffffffffffffffffff1673ffffffffffffffffffffffffffffffffffffffff16815260200190815260200160002081905550600660009054906101000a900473ffffffffffffffffffffffffffffffffffffffff1673ffffffffffffffffffffffffffffffffffffffff166340c10f1933836040518363ffffffff1660e01b8152600401610e029291906110df565b600060405180830381600087803b158015610e1c57600080fd5b505af1158015610e30573d6000803e3d6000fd5b505050503373ffffffffffffffffffffffffffffffffffffffff167faed495d70193dd915b96156dc90595c95aa5cc4f6985a2cd79286232d96ae8e282604051610e7a91906111fb565b60405180910390a250565b600081359050610e948161157e565b92915050565b600081519050610ea981611595565b92915050565b600081359050610ebe816115ac565b92915050565b600081519050610ed3816115ac565b92915050565b600060208284031215610eeb57600080fd5b6000610ef984828501610e85565b91505092915050565b600060208284031215610f1457600080fd5b6000610f2284828501610e9a565b91505092915050565b600060208284031215610f3d57600080fd5b6000610f4b84828501610eaf565b91505092915050565b600060208284031215610f6657600080fd5b6000610f7484828501610ec4565b91505092915050565b610f8681611347565b82525050565b610f9581611359565b82525050565b610fa48161138f565b82525050565b610fb3816113b3565b82525050565b6000610fc482611216565b610fce8185611221565b9350610fde8185602086016113d7565b610fe7816114c9565b840191505092915050565b6000610fff601383611221565b915061100a826114da565b602082019050919050565b6000611022601c83611221565b915061102d82611503565b602082019050919050565b6000611045601c83611221565b91506110508261152c565b602082019050919050565b6000611068601283611221565b915061107382611555565b602082019050919050565b61108781611385565b82525050565b60006020820190506110a26000830184610f7d565b92915050565b60006060820190506110bd6000830186610f7d565b6110ca6020830185610f7d565b6110d7604083018461107e565b949350505050565b60006040820190506110f46000830185610f7d565b611101602083018461107e565b9392505050565b600060208201905061111d6000830184610f8c565b92915050565b60006020820190506111386000830184610f9b565b92915050565b60006020820190506111536000830184610faa565b92915050565b600060208201905081810360008301526111738184610fb9565b905092915050565b6000602082019050818103600083015261119481610ff2565b9050919050565b600060208201905081810360008301526111b481611015565b9050919050565b600060208201905081810360008301526111d481611038565b9050919050565b600060208201905081810360008301526111f48161105b565b9050919050565b6000602082019050611210600083018461107e565b92915050565b600081519050919050565b600082825260208201905092915050565b600061123d82611385565b915061124883611385565b9250827fffffffffffffffffffffffffffffffffffffffffffffffffffffffffffffffff0382111561127d5761127c61143c565b5b828201905092915050565b600061129382611385565b915061129e83611385565b9250826112ae576112ad61146b565b5b828204905092915050565b60006112c482611385565b91506112cf83611385565b9250817fffffffffffffffffffffffffffffffffffffffffffffffffffffffffffffffff04831182151516156113085761130761143c565b5b828202905092915050565b600061131e82611385565b915061132983611385565b92508282101561133c5761133b61143c565b5b828203905092915050565b600061135282611365565b9050919050565b60008115159050919050565b600073ffffffffffffffffffffffffffffffffffffffff82169050919050565b6000819050919050565b600061139a826113a1565b9050919050565b60006113ac82611365565b9050919050565b60006113be826113c5565b9050919050565b60006113d082611365565b9050919050565b60005b838110156113f55780820151818401526020810190506113da565b83811115611404576000848401525b50505050565b6000600282049050600182168061142257607f821691505b602082108114156114365761143561149a565b5b50919050565b7f4e487b7100000000000000000000000000000000000000000000000000000000600052601160045260246000fd5b7f4e487b7100000000000000000000000000000000000000000000000000000000600052601260045260246000fd5b7f4e487b7100000000000000000000000000000000000000000000000000000000600052602260045260246000fd5b6000601f19601f8301169050919050565b7f4e6f7468696e6720746f20776974686472617700000000000000000000000000600082015250565b7f596f752063616e6e6f74207374616b65207a65726f20746f6b656e7300000000600082015250565b7f7374616b6520616d6f756e7420657863656564732062616c616e636500000000600082015250565b7f4e6f7468696e6720746f20756e7374616b650000000000000000000000000000600082015250565b61158781611347565b811461159257600080fd5b50565b61159e81611359565b81146115a957600080fd5b50565b6115b581611385565b81146115c057600080fd5b5056fea2646970667358221220cb7e6e2ba2f968f9a05f2648892725553fb848f8533dcc26d451d47ff80683a764736f6c63430008040033",
  "linkReferences": {},
  "deployedLinkReferences": {}
}